{
  "contractName": "BadVibes",
  "abi": [
    {
      "constant": true,
      "inputs": [
        {
          "name": "",
          "type": "uint256"
        }
      ],
      "name": "posts",
      "outputs": [
        {
          "name": "message",
          "type": "string"
        },
        {
          "name": "author",
          "type": "address"
        }
      ],
      "payable": false,
      "stateMutability": "view",
      "type": "function"
    },
    {
      "constant": false,
      "inputs": [],
      "name": "kill",
      "outputs": [],
      "payable": false,
      "stateMutability": "nonpayable",
      "type": "function"
    },
    {
      "constant": true,
      "inputs": [],
      "name": "owner",
      "outputs": [
        {
          "name": "",
          "type": "address"
        }
      ],
      "payable": false,
      "stateMutability": "view",
      "type": "function"
    },
    {
      "constant": false,
      "inputs": [
        {
          "name": "newOwner",
          "type": "address"
        }
      ],
      "name": "transferOwnership",
      "outputs": [],
      "payable": false,
      "stateMutability": "nonpayable",
      "type": "function"
    },
    {
      "anonymous": false,
      "inputs": [
        {
          "indexed": true,
          "name": "author",
          "type": "address"
        },
        {
          "indexed": false,
          "name": "message",
          "type": "string"
        },
        {
          "indexed": false,
          "name": "index",
          "type": "uint256"
        }
      ],
      "name": "LogNewPost",
      "type": "event"
    },
    {
      "constant": false,
      "inputs": [
        {
          "name": "username",
          "type": "string"
        }
      ],
      "name": "join",
      "outputs": [
        {
          "name": "result",
          "type": "bool"
        }
      ],
      "payable": false,
      "stateMutability": "nonpayable",
      "type": "function"
    },
    {
      "constant": false,
      "inputs": [
        {
          "name": "message",
          "type": "string"
        }
      ],
      "name": "createPost",
      "outputs": [
        {
          "name": "index",
          "type": "uint256"
        }
      ],
      "payable": false,
      "stateMutability": "nonpayable",
      "type": "function"
    },
    {
      "constant": true,
      "inputs": [
        {
          "name": "user",
          "type": "address"
        }
      ],
      "name": "isUser",
      "outputs": [
        {
          "name": "result",
          "type": "bool"
        }
      ],
      "payable": false,
      "stateMutability": "view",
      "type": "function"
    },
    {
      "constant": true,
      "inputs": [
        {
          "name": "user",
          "type": "address"
        }
      ],
      "name": "getUsername",
      "outputs": [
        {
          "name": "username",
          "type": "string"
        }
      ],
      "payable": false,
      "stateMutability": "view",
      "type": "function"
    },
    {
      "constant": true,
      "inputs": [],
      "name": "getPostCount",
      "outputs": [
        {
          "name": "count",
          "type": "uint256"
        }
      ],
      "payable": false,
      "stateMutability": "view",
      "type": "function"
    },
    {
      "constant": true,
      "inputs": [
        {
          "name": "index",
          "type": "uint256"
        }
      ],
      "name": "getPostAtIndex",
      "outputs": [
        {
          "name": "message",
          "type": "string"
        },
        {
          "name": "author",
          "type": "address"
        }
      ],
      "payable": false,
      "stateMutability": "view",
      "type": "function"
    },
    {
      "constant": true,
      "inputs": [
        {
          "name": "user",
          "type": "address"
        }
      ],
      "name": "getPostOfUserCount",
      "outputs": [
        {
          "name": "count",
          "type": "uint256"
        }
      ],
      "payable": false,
      "stateMutability": "view",
      "type": "function"
    },
    {
      "constant": true,
      "inputs": [
        {
          "name": "user",
          "type": "address"
        },
        {
          "name": "index",
          "type": "uint256"
        }
      ],
      "name": "getPostOfUserAtIndex",
      "outputs": [
        {
          "name": "postIndex",
          "type": "uint256"
        }
      ],
      "payable": false,
      "stateMutability": "view",
      "type": "function"
    }
  ],
  "bytecode": "0x6080604052336000806101000a81548173ffffffffffffffffffffffffffffffffffffffff021916908373ffffffffffffffffffffffffffffffffffffffff160217905550610feb806100536000396000f3006080604052600436106100ba576000357c0100000000000000000000000000000000000000000000000000000000900463ffffffff1680630b1e7f83146100bf57806341c0e1b5146101985780634209fff1146101af5780636a786b071461020a5780638da5cb5b1461028b578063bcc95407146102e2578063c7303c611461030d578063ce43c0321461038a578063d2ae686014610446578063f2fde38b1461051f578063fbb3754914610562578063fda94401146105c3575b600080fd5b3480156100cb57600080fd5b506100ea6004803603810190808035906020019092919050505061061a565b60405180806020018373ffffffffffffffffffffffffffffffffffffffff1673ffffffffffffffffffffffffffffffffffffffff168152602001828103825284818151815260200191508051906020019080838360005b8381101561015c578082015181840152602081019050610141565b50505050905090810190601f1680156101895780820380516001836020036101000a031916815260200191505b50935050505060405180910390f35b3480156101a457600080fd5b506101ad610705565b005b3480156101bb57600080fd5b506101f0600480360381019080803573ffffffffffffffffffffffffffffffffffffffff169060200190929190505050610796565b604051808215151515815260200191505060405180910390f35b34801561021657600080fd5b50610271600480360381019080803590602001908201803590602001908080601f01602080910402602001604051908101604052809392919081815260200183838082843782019150505050505091929192905050506107f8565b604051808215151515815260200191505060405180910390f35b34801561029757600080fd5b506102a0610887565b604051808273ffffffffffffffffffffffffffffffffffffffff1673ffffffffffffffffffffffffffffffffffffffff16815260200191505060405180910390f35b3480156102ee57600080fd5b506102f76108ac565b6040518082815260200191505060405180910390f35b34801561031957600080fd5b50610374600480360381019080803590602001908201803590602001908080601f01602080910402602001604051908101604052809392919081815260200183838082843782019150505050505091929192905050506108b9565b6040518082815260200191505060405180910390f35b34801561039657600080fd5b506103cb600480360381019080803573ffffffffffffffffffffffffffffffffffffffff169060200190929190505050610ae1565b6040518080602001828103825283818151815260200191508051906020019080838360005b8381101561040b5780820151818401526020810190506103f0565b50505050905090810190601f1680156104385780820380516001836020036101000a031916815260200191505b509250505060405180910390f35b34801561045257600080fd5b5061047160048036038101908080359060200190929190505050610bc5565b60405180806020018373ffffffffffffffffffffffffffffffffffffffff1673ffffffffffffffffffffffffffffffffffffffff168152602001828103825284818151815260200191508051906020019080838360005b838110156104e35780820151818401526020810190506104c8565b50505050905090810190601f1680156105105780820380516001836020036101000a031916815260200191505b50935050505060405180910390f35b34801561052b57600080fd5b50610560600480360381019080803573ffffffffffffffffffffffffffffffffffffffff169060200190929190505050610ccf565b005b34801561056e57600080fd5b506105ad600480360381019080803573ffffffffffffffffffffffffffffffffffffffff16906020019092919080359060200190929190505050610d9f565b6040518082815260200191505060405180910390f35b3480156105cf57600080fd5b50610604600480360381019080803573ffffffffffffffffffffffffffffffffffffffff169060200190929190505050610e03565b6040518082815260200191505060405180910390f35b60028181548110151561062957fe5b9060005260206000209060020201600091509050806000018054600181600116156101000203166002900480601f0160208091040260200160405190810160405280929190818152602001828054600181600116156101000203166002900480156106d55780601f106106aa576101008083540402835291602001916106d5565b820191906000526020600020905b8154815290600101906020018083116106b857829003601f168201915b5050505050908060010160009054906101000a900473ffffffffffffffffffffffffffffffffffffffff16905082565b6000809054906101000a900473ffffffffffffffffffffffffffffffffffffffff1673ffffffffffffffffffffffffffffffffffffffff163373ffffffffffffffffffffffffffffffffffffffff161415610794576000809054906101000a900473ffffffffffffffffffffffffffffffffffffffff1673ffffffffffffffffffffffffffffffffffffffff16ff5b565b600080600160008473ffffffffffffffffffffffffffffffffffffffff1673ffffffffffffffffffffffffffffffffffffffff168152602001908152602001600020600001805460018160011615610100020316600290049050119050919050565b600061080333610796565b15151561080f57600080fd5b61081833610796565b156108265760009050610882565b81600160003373ffffffffffffffffffffffffffffffffffffffff1673ffffffffffffffffffffffffffffffffffffffff168152602001908152602001600020600001908051906020019061087c929190610e6a565b50600190505b919050565b6000809054906101000a900473ffffffffffffffffffffffffffffffffffffffff1681565b6000600280549050905090565b60006108c3610eea565b6108cc33610796565b15156108d757600080fd5b60408051908101604052808481526020013373ffffffffffffffffffffffffffffffffffffffff16815250905060028190806001815401808255809150509060018203906000526020600020906002020160009091929091909150600082015181600001908051906020019061094e929190610f1a565b5060208201518160010160006101000a81548173ffffffffffffffffffffffffffffffffffffffff021916908373ffffffffffffffffffffffffffffffffffffffff160217905550505050600160003373ffffffffffffffffffffffffffffffffffffffff1673ffffffffffffffffffffffffffffffffffffffff16815260200190815260200160002060010160016002805490500390806001815401808255809150509060018203906000526020600020016000909192909190915055503373ffffffffffffffffffffffffffffffffffffffff167ffdc93ca928c33ff3268f7735fca767a0cce9982a7383d1adfcb45c1aefdbe0ad846001600280549050036040518080602001838152602001828103825284818151815260200191508051906020019080838360005b83811015610a95578082015181840152602081019050610a7a565b50505050905090810190601f168015610ac25780820380516001836020036101000a031916815260200191505b50935050505060405180910390a2600160028054905003915050919050565b6060600160008373ffffffffffffffffffffffffffffffffffffffff1673ffffffffffffffffffffffffffffffffffffffff1681526020019081526020016000206000018054600181600116156101000203166002900480601f016020809104026020016040519081016040528092919081815260200182805460018160011615610100020316600290048015610bb95780601f10610b8e57610100808354040283529160200191610bb9565b820191906000526020600020905b815481529060010190602001808311610b9c57829003601f168201915b50505050509050919050565b60606000600283815481101515610bd857fe5b9060005260206000209060020201600001600284815481101515610bf857fe5b906000526020600020906002020160010160009054906101000a900473ffffffffffffffffffffffffffffffffffffffff16818054600181600116156101000203166002900480601f016020809104026020016040519081016040528092919081815260200182805460018160011615610100020316600290048015610cbf5780601f10610c9457610100808354040283529160200191610cbf565b820191906000526020600020905b815481529060010190602001808311610ca257829003601f168201915b5050505050915091509150915091565b6000809054906101000a900473ffffffffffffffffffffffffffffffffffffffff1673ffffffffffffffffffffffffffffffffffffffff163373ffffffffffffffffffffffffffffffffffffffff161415610d9c57600073ffffffffffffffffffffffffffffffffffffffff168173ffffffffffffffffffffffffffffffffffffffff16141515610d9b57806000806101000a81548173ffffffffffffffffffffffffffffffffffffffff021916908373ffffffffffffffffffffffffffffffffffffffff1602179055505b5b50565b6000600160008473ffffffffffffffffffffffffffffffffffffffff1673ffffffffffffffffffffffffffffffffffffffff16815260200190815260200160002060010182815481101515610df057fe5b9060005260206000200154905092915050565b6000610e0e82610796565b15610e6057600160008373ffffffffffffffffffffffffffffffffffffffff1673ffffffffffffffffffffffffffffffffffffffff168152602001908152602001600020600101805490509050610e65565b600090505b919050565b828054600181600116156101000203166002900490600052602060002090601f016020900481019282601f10610eab57805160ff1916838001178555610ed9565b82800160010185558215610ed9579182015b82811115610ed8578251825591602001919060010190610ebd565b5b509050610ee69190610f9a565b5090565b604080519081016040528060608152602001600073ffffffffffffffffffffffffffffffffffffffff1681525090565b828054600181600116156101000203166002900490600052602060002090601f016020900481019282601f10610f5b57805160ff1916838001178555610f89565b82800160010185558215610f89579182015b82811115610f88578251825591602001919060010190610f6d565b5b509050610f969190610f9a565b5090565b610fbc91905b80821115610fb8576000816000905550600101610fa0565b5090565b905600a165627a7a723058203eeb03ea8cb80459d0a7ce7d9a6c26350f57fd6c68aae9aa8e48a2735cd85c460029",
  "source": "pragma solidity ^0.4.20;\n\nimport './zeppelin/lifecycle/Killable.sol';\n\ncontract BadVibes is Killable {\n  struct User {\n    string username;\n    uint[] postIndexes;\n  }\n\n  mapping(address => User) private users;\n\n  struct Post {\n    string message;\n    address author;\n  }\n\n  Post[] public posts;\n\n  modifier onlyPublic() {\n    require(!isUser(msg.sender));\n    _;\n  }\n\n  modifier onlyAuthenticated() {\n    require(isUser(msg.sender));\n    _;\n  }\n\n  event LogNewPost(address indexed author, string message, uint index);\n\n  function join(string username) public onlyPublic returns(bool result) {\n    if (isUser(msg.sender)) {\n      return false;\n    }\n\n    users[msg.sender].username = username;\n    return true;\n  }\n\n  function createPost(string message) public onlyAuthenticated returns(uint index) {\n    Post memory post = Post(message, msg.sender);\n    posts.push(post);\n\n    users[msg.sender].postIndexes.push(posts.length - 1);\n\n    emit LogNewPost(msg.sender, message, posts.length - 1);\n\n    return posts.length - 1;\n  }\n\n  function isUser(address user) public view returns(bool result) {\n    return bytes(users[user].username).length > 0;\n  }\n\n  function getUsername(address user) public view returns(string username) {\n    return users[user].username;\n  }\n\n  function getPostCount() public view returns(uint count) {\n    return posts.length;\n  }\n\n  function getPostAtIndex(uint index) public view returns(string message, address author) {\n    return (\n      posts[index].message,\n      posts[index].author\n    );\n  }\n\n  function getPostOfUserCount(address user) public view returns(uint count) {\n    if (isUser(user)) {\n      return users[user].postIndexes.length;\n    }\n\n    return 0;\n  }\n\n  function getPostOfUserAtIndex(address user, uint index) public view returns(uint postIndex) {\n    return users[user].postIndexes[index];\n  }\n}\n",
  "sourcePath": "/Users/ward/Documents/Decentralised Apps Course/homework/bad-vibes/contracts/BadVibes.sol",
  "compiler": {
    "name": "solc",
    "version": "0.4.23+commit.124ca40d.Emscripten.clang"
  },
  "schemaVersion": "2.0.0",
  "updatedAt": "2018-06-17T08:24:23.128Z"
}