{
  "contractName": "BadVibes",
  "abi": [
    {
      "constant": true,
      "inputs": [
        {
          "name": "",
          "type": "uint256"
        }
      ],
      "name": "posts",
      "outputs": [
        {
          "name": "message",
          "type": "string"
        },
        {
          "name": "author",
          "type": "address"
        }
      ],
      "payable": false,
      "stateMutability": "view",
      "type": "function",
      "signature": "0x0b1e7f83"
    },
    {
      "constant": false,
      "inputs": [],
      "name": "kill",
      "outputs": [],
      "payable": false,
      "stateMutability": "nonpayable",
      "type": "function",
      "signature": "0x41c0e1b5"
    },
    {
      "constant": true,
      "inputs": [],
      "name": "owner",
      "outputs": [
        {
          "name": "",
          "type": "address"
        }
      ],
      "payable": false,
      "stateMutability": "view",
      "type": "function",
      "signature": "0x8da5cb5b"
    },
    {
      "constant": false,
      "inputs": [
        {
          "name": "newOwner",
          "type": "address"
        }
      ],
      "name": "transferOwnership",
      "outputs": [],
      "payable": false,
      "stateMutability": "nonpayable",
      "type": "function",
      "signature": "0xf2fde38b"
    },
    {
      "anonymous": false,
      "inputs": [
        {
          "indexed": true,
          "name": "author",
          "type": "address"
        },
        {
          "indexed": false,
          "name": "message",
          "type": "string"
        },
        {
          "indexed": false,
          "name": "index",
          "type": "uint256"
        }
      ],
      "name": "LogNewPost",
      "type": "event",
      "signature": "0xfdc93ca928c33ff3268f7735fca767a0cce9982a7383d1adfcb45c1aefdbe0ad"
    },
    {
      "constant": false,
      "inputs": [
        {
          "name": "username",
          "type": "string"
        }
      ],
      "name": "join",
      "outputs": [
        {
          "name": "result",
          "type": "bool"
        }
      ],
      "payable": false,
      "stateMutability": "nonpayable",
      "type": "function",
      "signature": "0x6a786b07"
    },
    {
      "constant": false,
      "inputs": [
        {
          "name": "message",
          "type": "string"
        }
      ],
      "name": "createPost",
      "outputs": [
        {
          "name": "index",
          "type": "uint256"
        }
      ],
      "payable": false,
      "stateMutability": "nonpayable",
      "type": "function",
      "signature": "0xc7303c61"
    },
    {
      "constant": true,
      "inputs": [
        {
          "name": "user",
          "type": "address"
        }
      ],
      "name": "isUser",
      "outputs": [
        {
          "name": "result",
          "type": "bool"
        }
      ],
      "payable": false,
      "stateMutability": "view",
      "type": "function",
      "signature": "0x4209fff1"
    },
    {
      "constant": true,
      "inputs": [
        {
          "name": "user",
          "type": "address"
        }
      ],
      "name": "getUsername",
      "outputs": [
        {
          "name": "username",
          "type": "string"
        }
      ],
      "payable": false,
      "stateMutability": "view",
      "type": "function",
      "signature": "0xce43c032"
    },
    {
      "constant": true,
      "inputs": [],
      "name": "getPostCount",
      "outputs": [
        {
          "name": "count",
          "type": "uint256"
        }
      ],
      "payable": false,
      "stateMutability": "view",
      "type": "function",
      "signature": "0xbcc95407"
    },
    {
      "constant": true,
      "inputs": [
        {
          "name": "index",
          "type": "uint256"
        }
      ],
      "name": "getPostAtIndex",
      "outputs": [
        {
          "name": "message",
          "type": "string"
        },
        {
          "name": "author",
          "type": "address"
        }
      ],
      "payable": false,
      "stateMutability": "view",
      "type": "function",
      "signature": "0xd2ae6860"
    },
    {
      "constant": true,
      "inputs": [
        {
          "name": "user",
          "type": "address"
        }
      ],
      "name": "getPostOfUserCount",
      "outputs": [
        {
          "name": "count",
          "type": "uint256"
        }
      ],
      "payable": false,
      "stateMutability": "view",
      "type": "function",
      "signature": "0xfda94401"
    },
    {
      "constant": true,
      "inputs": [
        {
          "name": "user",
          "type": "address"
        },
        {
          "name": "index",
          "type": "uint256"
        }
      ],
      "name": "getPostOfUserAtIndex",
      "outputs": [
        {
          "name": "postIndex",
          "type": "uint256"
        }
      ],
      "payable": false,
      "stateMutability": "view",
      "type": "function",
      "signature": "0xfbb37549"
    }
  ],
  "bytecode": "0x6080604052336000806101000a81548173ffffffffffffffffffffffffffffffffffffffff021916908373ffffffffffffffffffffffffffffffffffffffff1602179055506111dd806100536000396000f3fe6080604052600436106100ba576000357c0100000000000000000000000000000000000000000000000000000000900463ffffffff1680630b1e7f83146100bf57806341c0e1b5146101a65780634209fff1146101bd5780636a786b07146102265780638da5cb5b14610306578063bcc954071461035d578063c7303c6114610388578063ce43c03214610464578063d2ae68601461052e578063f2fde38b14610615578063fbb3754914610666578063fda94401146106d5575b600080fd5b3480156100cb57600080fd5b506100f8600480360360208110156100e257600080fd5b810190808035906020019092919050505061073a565b60405180806020018373ffffffffffffffffffffffffffffffffffffffff1673ffffffffffffffffffffffffffffffffffffffff168152602001828103825284818151815260200191508051906020019080838360005b8381101561016a57808201518184015260208101905061014f565b50505050905090810190601f1680156101975780820380516001836020036101000a031916815260200191505b50935050505060405180910390f35b3480156101b257600080fd5b506101bb610825565b005b3480156101c957600080fd5b5061020c600480360360208110156101e057600080fd5b81019080803573ffffffffffffffffffffffffffffffffffffffff1690602001909291905050506108b6565b604051808215151515815260200191505060405180910390f35b34801561023257600080fd5b506102ec6004803603602081101561024957600080fd5b810190808035906020019064010000000081111561026657600080fd5b82018360208201111561027857600080fd5b8035906020019184600183028401116401000000008311171561029a57600080fd5b91908080601f016020809104026020016040519081016040528093929190818152602001838380828437600081840152601f19601f820116905080830192505050505050509192919290505050610918565b604051808215151515815260200191505060405180910390f35b34801561031257600080fd5b5061031b610a10565b604051808273ffffffffffffffffffffffffffffffffffffffff1673ffffffffffffffffffffffffffffffffffffffff16815260200191505060405180910390f35b34801561036957600080fd5b50610372610a35565b6040518082815260200191505060405180910390f35b34801561039457600080fd5b5061044e600480360360208110156103ab57600080fd5b81019080803590602001906401000000008111156103c857600080fd5b8201836020820111156103da57600080fd5b803590602001918460018302840111640100000000831117156103fc57600080fd5b91908080601f016020809104026020016040519081016040528093929190818152602001838380828437600081840152601f19601f820116905080830192505050505050509192919290505050610a42565b6040518082815260200191505060405180910390f35b34801561047057600080fd5b506104b36004803603602081101561048757600080fd5b81019080803573ffffffffffffffffffffffffffffffffffffffff169060200190929190505050610cd3565b6040518080602001828103825283818151815260200191508051906020019080838360005b838110156104f35780820151818401526020810190506104d8565b50505050905090810190601f1680156105205780820380516001836020036101000a031916815260200191505b509250505060405180910390f35b34801561053a57600080fd5b506105676004803603602081101561055157600080fd5b8101908080359060200190929190505050610db7565b60405180806020018373ffffffffffffffffffffffffffffffffffffffff1673ffffffffffffffffffffffffffffffffffffffff168152602001828103825284818151815260200191508051906020019080838360005b838110156105d95780820151818401526020810190506105be565b50505050905090810190601f1680156106065780820380516001836020036101000a031916815260200191505b50935050505060405180910390f35b34801561062157600080fd5b506106646004803603602081101561063857600080fd5b81019080803573ffffffffffffffffffffffffffffffffffffffff169060200190929190505050610ec1565b005b34801561067257600080fd5b506106bf6004803603604081101561068957600080fd5b81019080803573ffffffffffffffffffffffffffffffffffffffff16906020019092919080359060200190929190505050610f91565b6040518082815260200191505060405180910390f35b3480156106e157600080fd5b50610724600480360360208110156106f857600080fd5b81019080803573ffffffffffffffffffffffffffffffffffffffff169060200190929190505050610ff5565b6040518082815260200191505060405180910390f35b60028181548110151561074957fe5b9060005260206000209060020201600091509050806000018054600181600116156101000203166002900480601f0160208091040260200160405190810160405280929190818152602001828054600181600116156101000203166002900480156107f55780601f106107ca576101008083540402835291602001916107f5565b820191906000526020600020905b8154815290600101906020018083116107d857829003601f168201915b5050505050908060010160009054906101000a900473ffffffffffffffffffffffffffffffffffffffff16905082565b6000809054906101000a900473ffffffffffffffffffffffffffffffffffffffff1673ffffffffffffffffffffffffffffffffffffffff163373ffffffffffffffffffffffffffffffffffffffff1614156108b4576000809054906101000a900473ffffffffffffffffffffffffffffffffffffffff1673ffffffffffffffffffffffffffffffffffffffff16ff5b565b600080600160008473ffffffffffffffffffffffffffffffffffffffff1673ffffffffffffffffffffffffffffffffffffffff168152602001908152602001600020600001805460018160011615610100020316600290049050119050919050565b6000610923336108b6565b151515610998576040517f08c379a00000000000000000000000000000000000000000000000000000000081526004018080602001828103825260148152602001807f73656e64657220697320617574686f72697a656400000000000000000000000081525060200191505060405180910390fd5b6109a1336108b6565b156109af5760009050610a0b565b81600160003373ffffffffffffffffffffffffffffffffffffffff1673ffffffffffffffffffffffffffffffffffffffff1681526020019081526020016000206000019080519060200190610a0592919061105c565b50600190505b919050565b6000809054906101000a900473ffffffffffffffffffffffffffffffffffffffff1681565b6000600280549050905090565b6000610a4d336108b6565b1515610ac1576040517f08c379a00000000000000000000000000000000000000000000000000000000081526004018080602001828103825260188152602001807f73656e646572206973206e6f7420617574686f72697a6564000000000000000081525060200191505060405180910390fd5b610ac96110dc565b60408051908101604052808481526020013373ffffffffffffffffffffffffffffffffffffffff168152509050600281908060018154018082558091505090600182039060005260206000209060020201600090919290919091506000820151816000019080519060200190610b4092919061110c565b5060208201518160010160006101000a81548173ffffffffffffffffffffffffffffffffffffffff021916908373ffffffffffffffffffffffffffffffffffffffff160217905550505050600160003373ffffffffffffffffffffffffffffffffffffffff1673ffffffffffffffffffffffffffffffffffffffff16815260200190815260200160002060010160016002805490500390806001815401808255809150509060018203906000526020600020016000909192909190915055503373ffffffffffffffffffffffffffffffffffffffff167ffdc93ca928c33ff3268f7735fca767a0cce9982a7383d1adfcb45c1aefdbe0ad846001600280549050036040518080602001838152602001828103825284818151815260200191508051906020019080838360005b83811015610c87578082015181840152602081019050610c6c565b50505050905090810190601f168015610cb45780820380516001836020036101000a031916815260200191505b50935050505060405180910390a2600160028054905003915050919050565b6060600160008373ffffffffffffffffffffffffffffffffffffffff1673ffffffffffffffffffffffffffffffffffffffff1681526020019081526020016000206000018054600181600116156101000203166002900480601f016020809104026020016040519081016040528092919081815260200182805460018160011615610100020316600290048015610dab5780601f10610d8057610100808354040283529160200191610dab565b820191906000526020600020905b815481529060010190602001808311610d8e57829003601f168201915b50505050509050919050565b60606000600283815481101515610dca57fe5b9060005260206000209060020201600001600284815481101515610dea57fe5b906000526020600020906002020160010160009054906101000a900473ffffffffffffffffffffffffffffffffffffffff16818054600181600116156101000203166002900480601f016020809104026020016040519081016040528092919081815260200182805460018160011615610100020316600290048015610eb15780601f10610e8657610100808354040283529160200191610eb1565b820191906000526020600020905b815481529060010190602001808311610e9457829003601f168201915b5050505050915091509150915091565b6000809054906101000a900473ffffffffffffffffffffffffffffffffffffffff1673ffffffffffffffffffffffffffffffffffffffff163373ffffffffffffffffffffffffffffffffffffffff161415610f8e57600073ffffffffffffffffffffffffffffffffffffffff168173ffffffffffffffffffffffffffffffffffffffff16141515610f8d57806000806101000a81548173ffffffffffffffffffffffffffffffffffffffff021916908373ffffffffffffffffffffffffffffffffffffffff1602179055505b5b50565b6000600160008473ffffffffffffffffffffffffffffffffffffffff1673ffffffffffffffffffffffffffffffffffffffff16815260200190815260200160002060010182815481101515610fe257fe5b9060005260206000200154905092915050565b6000611000826108b6565b1561105257600160008373ffffffffffffffffffffffffffffffffffffffff1673ffffffffffffffffffffffffffffffffffffffff168152602001908152602001600020600101805490509050611057565b600090505b919050565b828054600181600116156101000203166002900490600052602060002090601f016020900481019282601f1061109d57805160ff19168380011785556110cb565b828001600101855582156110cb579182015b828111156110ca5782518255916020019190600101906110af565b5b5090506110d8919061118c565b5090565b604080519081016040528060608152602001600073ffffffffffffffffffffffffffffffffffffffff1681525090565b828054600181600116156101000203166002900490600052602060002090601f016020900481019282601f1061114d57805160ff191683800117855561117b565b8280016001018555821561117b579182015b8281111561117a57825182559160200191906001019061115f565b5b509050611188919061118c565b5090565b6111ae91905b808211156111aa576000816000905550600101611192565b5090565b9056fea165627a7a72305820a06b2d045320bf9b97f2112895293f71e45e794f80d5f546821c4e24b6b61eb50029",
  "source": "pragma solidity 0.5.0;\n\nimport \"./zeppelin/lifecycle/Killable.sol\";\n\ncontract BadVibes is Killable {\n  struct User {\n    string username;\n    uint[] postIndexes;\n  }\n\n  mapping(address => User) private users;\n\n  struct Post {\n    string message;\n    address author;\n  }\n\n  Post[] public posts;\n\n  modifier onlyPublic() {\n    require(\n      !isUser(msg.sender),\n      \"sender is authorized\"\n    );\n    _;\n  }\n\n  modifier onlyAuthenticated() {\n    require(\n      isUser(msg.sender),\n      \"sender is not authorized\"\n    );\n    _;\n  }\n\n  event LogNewPost(address indexed author, string message, uint index);\n\n  function join(string memory username) public onlyPublic returns(bool result) {\n    if (isUser(msg.sender)) {\n      return false;\n    }\n\n    users[msg.sender].username = username;\n    return true;\n  }\n\n  function createPost(string memory message) public onlyAuthenticated returns(uint index) {\n    Post memory post = Post(message, msg.sender);\n    posts.push(post);\n\n    users[msg.sender].postIndexes.push(posts.length - 1);\n\n    emit LogNewPost(msg.sender, message, posts.length - 1);\n\n    return posts.length - 1;\n  }\n\n  function isUser(address user) public view returns(bool result) {\n    return bytes(users[user].username).length > 0;\n  }\n\n  function getUsername(address user) public view returns(string memory username) {\n    return users[user].username;\n  }\n\n  function getPostCount() public view returns(uint count) {\n    return posts.length;\n  }\n\n  function getPostAtIndex(uint index) public view returns(string memory message, address author) {\n    return (\n      posts[index].message,\n      posts[index].author\n    );\n  }\n\n  function getPostOfUserCount(address user) public view returns(uint count) {\n    if (isUser(user)) {\n      return users[user].postIndexes.length;\n    }\n\n    return 0;\n  }\n\n  function getPostOfUserAtIndex(address user, uint index) public view returns(uint postIndex) {\n    return users[user].postIndexes[index];\n  }\n}\n",
  "sourcePath": "/Users/ward/Documents/Repositories/bad-vibes/contracts/BadVibes.sol",
  "compiler": {
    "name": "solc",
    "version": "0.5.0+commit.1d4f565a.Emscripten.clang"
  },
  "schemaVersion": "3.0.2",
  "updatedAt": "2019-02-17T03:30:30.536Z",
  "devdoc": {
    "methods": {}
  },
  "userdoc": {
    "methods": {}
  }
}